{
	"contracts/RentalContract.sol": {
		"RentalContract": {
			"abi": [
				{
					"inputs": [
						{
							"internalType": "address",
							"name": "_tenent",
							"type": "address"
						},
						{
							"internalType": "uint256",
							"name": "_rentAmount",
							"type": "uint256"
						},
						{
							"internalType": "uint256",
							"name": "_leaseTerm",
							"type": "uint256"
						}
					],
					"stateMutability": "nonpayable",
					"type": "constructor"
				},
				{
					"anonymous": false,
					"inputs": [
						{
							"indexed": true,
							"internalType": "address",
							"name": "payer",
							"type": "address"
						},
						{
							"indexed": false,
							"internalType": "uint256",
							"name": "amount",
							"type": "uint256"
						}
					],
					"name": "RentPaid",
					"type": "event"
				},
				{
					"anonymous": false,
					"inputs": [
						{
							"indexed": true,
							"internalType": "address",
							"name": "landlord",
							"type": "address"
						},
						{
							"indexed": true,
							"internalType": "address",
							"name": "tenent",
							"type": "address"
						},
						{
							"indexed": false,
							"internalType": "uint256",
							"name": "startTime",
							"type": "uint256"
						}
					],
					"name": "leaseCreated",
					"type": "event"
				},
				{
					"anonymous": false,
					"inputs": [
						{
							"indexed": true,
							"internalType": "address",
							"name": "terminator",
							"type": "address"
						}
					],
					"name": "leaseTerminated",
					"type": "event"
				},
				{
					"inputs": [],
					"name": "activatTheLease",
					"outputs": [],
					"stateMutability": "nonpayable",
					"type": "function"
				},
				{
					"inputs": [],
					"name": "isLeaseActive",
					"outputs": [
						{
							"internalType": "bool",
							"name": "",
							"type": "bool"
						}
					],
					"stateMutability": "view",
					"type": "function"
				},
				{
					"inputs": [],
					"name": "landlord",
					"outputs": [
						{
							"internalType": "address",
							"name": "",
							"type": "address"
						}
					],
					"stateMutability": "view",
					"type": "function"
				},
				{
					"inputs": [],
					"name": "leaseTerm",
					"outputs": [
						{
							"internalType": "uint256",
							"name": "",
							"type": "uint256"
						}
					],
					"stateMutability": "view",
					"type": "function"
				},
				{
					"inputs": [],
					"name": "payRent",
					"outputs": [],
					"stateMutability": "payable",
					"type": "function"
				},
				{
					"inputs": [],
					"name": "rentAmount",
					"outputs": [
						{
							"internalType": "uint256",
							"name": "",
							"type": "uint256"
						}
					],
					"stateMutability": "view",
					"type": "function"
				},
				{
					"inputs": [],
					"name": "startTime",
					"outputs": [
						{
							"internalType": "uint256",
							"name": "",
							"type": "uint256"
						}
					],
					"stateMutability": "view",
					"type": "function"
				},
				{
					"inputs": [],
					"name": "tenent",
					"outputs": [
						{
							"internalType": "address",
							"name": "",
							"type": "address"
						}
					],
					"stateMutability": "view",
					"type": "function"
				},
				{
					"inputs": [],
					"name": "terminateLease",
					"outputs": [],
					"stateMutability": "nonpayable",
					"type": "function"
				},
				{
					"inputs": [],
					"name": "withdrawFunds",
					"outputs": [],
					"stateMutability": "nonpayable",
					"type": "function"
				}
			],
			"devdoc": {
				"kind": "dev",
				"methods": {},
				"version": 1
			},
			"evm": {
				"assembly": "    /* \"contracts/RentalContract.sol\":57:1705  contract RentalContract {... */\n  mstore(0x40, 0x80)\n    /* \"contracts/RentalContract.sol\":712:936  constructor(... */\n  callvalue\n  dup1\n  iszero\n  tag_1\n  jumpi\n  0x00\n  dup1\n  revert\ntag_1:\n  pop\n  mload(0x40)\n  sub(codesize, bytecodeSize)\n  dup1\n  bytecodeSize\n  dup4\n  codecopy\n  dup2\n  dup2\n  add\n  0x40\n  mstore\n  dup2\n  add\n  swap1\n  tag_2\n  swap2\n  swap1\n  tag_3\n  jump\t// in\ntag_2:\n    /* \"contracts/RentalContract.sol\":827:837  msg.sender */\n  caller\n    /* \"contracts/RentalContract.sol\":816:824  landlord */\n  0x00\n  dup1\n    /* \"contracts/RentalContract.sol\":816:837  landlord = msg.sender */\n  0x0100\n  exp\n  dup2\n  sload\n  dup2\n  0xffffffffffffffffffffffffffffffffffffffff\n  mul\n  not\n  and\n  swap1\n  dup4\n  0xffffffffffffffffffffffffffffffffffffffff\n  and\n  mul\n  or\n  swap1\n  sstore\n  pop\n    /* \"contracts/RentalContract.sol\":856:863  _tenent */\n  dup3\n    /* \"contracts/RentalContract.sol\":847:853  tenent */\n  0x01\n  0x00\n    /* \"contracts/RentalContract.sol\":847:863  tenent = _tenent */\n  0x0100\n  exp\n  dup2\n  sload\n  dup2\n  0xffffffffffffffffffffffffffffffffffffffff\n  mul\n  not\n  and\n  swap1\n  dup4\n  0xffffffffffffffffffffffffffffffffffffffff\n  and\n  mul\n  or\n  swap1\n  sstore\n  pop\n    /* \"contracts/RentalContract.sol\":886:897  _rentAmount */\n  dup2\n    /* \"contracts/RentalContract.sol\":873:883  rentAmount */\n  0x02\n    /* \"contracts/RentalContract.sol\":873:897  rentAmount = _rentAmount */\n  dup2\n  swap1\n  sstore\n  pop\n    /* \"contracts/RentalContract.sol\":919:929  _leaseTerm */\n  dup1\n    /* \"contracts/RentalContract.sol\":907:916  leaseTerm */\n  0x03\n    /* \"contracts/RentalContract.sol\":907:929  leaseTerm = _leaseTerm */\n  dup2\n  swap1\n  sstore\n  pop\n    /* \"contracts/RentalContract.sol\":712:936  constructor(... */\n  pop\n  pop\n  pop\n    /* \"contracts/RentalContract.sol\":57:1705  contract RentalContract {... */\n  jump(tag_6)\n    /* \"#utility.yul\":88:205   */\ntag_8:\n    /* \"#utility.yul\":197:198   */\n  0x00\n    /* \"#utility.yul\":194:195   */\n  dup1\n    /* \"#utility.yul\":187:199   */\n  revert\n    /* \"#utility.yul\":334:460   */\ntag_10:\n    /* \"#utility.yul\":371:378   */\n  0x00\n    /* \"#utility.yul\":411:453   */\n  0xffffffffffffffffffffffffffffffffffffffff\n    /* \"#utility.yul\":404:409   */\n  dup3\n    /* \"#utility.yul\":400:454   */\n  and\n    /* \"#utility.yul\":389:454   */\n  swap1\n  pop\n    /* \"#utility.yul\":334:460   */\n  swap2\n  swap1\n  pop\n  jump\t// out\n    /* \"#utility.yul\":466:562   */\ntag_11:\n    /* \"#utility.yul\":503:510   */\n  0x00\n    /* \"#utility.yul\":532:556   */\n  tag_23\n    /* \"#utility.yul\":550:555   */\n  dup3\n    /* \"#utility.yul\":532:556   */\n  tag_10\n  jump\t// in\ntag_23:\n    /* \"#utility.yul\":521:556   */\n  swap1\n  pop\n    /* \"#utility.yul\":466:562   */\n  swap2\n  swap1\n  pop\n  jump\t// out\n    /* \"#utility.yul\":568:690   */\ntag_12:\n    /* \"#utility.yul\":641:665   */\n  tag_25\n    /* \"#utility.yul\":659:664   */\n  dup2\n    /* \"#utility.yul\":641:665   */\n  tag_11\n  jump\t// in\ntag_25:\n    /* \"#utility.yul\":634:639   */\n  dup2\n    /* \"#utility.yul\":631:666   */\n  eq\n    /* \"#utility.yul\":621:684   */\n  tag_26\n  jumpi\n    /* \"#utility.yul\":680:681   */\n  0x00\n    /* \"#utility.yul\":677:678   */\n  dup1\n    /* \"#utility.yul\":670:682   */\n  revert\n    /* \"#utility.yul\":621:684   */\ntag_26:\n    /* \"#utility.yul\":568:690   */\n  pop\n  jump\t// out\n    /* \"#utility.yul\":696:839   */\ntag_13:\n    /* \"#utility.yul\":753:758   */\n  0x00\n    /* \"#utility.yul\":784:790   */\n  dup2\n    /* \"#utility.yul\":778:791   */\n  mload\n    /* \"#utility.yul\":769:791   */\n  swap1\n  pop\n    /* \"#utility.yul\":800:833   */\n  tag_28\n    /* \"#utility.yul\":827:832   */\n  dup2\n    /* \"#utility.yul\":800:833   */\n  tag_12\n  jump\t// in\ntag_28:\n    /* \"#utility.yul\":696:839   */\n  swap3\n  swap2\n  pop\n  pop\n  jump\t// out\n    /* \"#utility.yul\":845:922   */\ntag_14:\n    /* \"#utility.yul\":882:889   */\n  0x00\n    /* \"#utility.yul\":911:916   */\n  dup2\n    /* \"#utility.yul\":900:916   */\n  swap1\n  pop\n    /* \"#utility.yul\":845:922   */\n  swap2\n  swap1\n  pop\n  jump\t// out\n    /* \"#utility.yul\":928:1050   */\ntag_15:\n    /* \"#utility.yul\":1001:1025   */\n  tag_31\n    /* \"#utility.yul\":1019:1024   */\n  dup2\n    /* \"#utility.yul\":1001:1025   */\n  tag_14\n  jump\t// in\ntag_31:\n    /* \"#utility.yul\":994:999   */\n  dup2\n    /* \"#utility.yul\":991:1026   */\n  eq\n    /* \"#utility.yul\":981:1044   */\n  tag_32\n  jumpi\n    /* \"#utility.yul\":1040:1041   */\n  0x00\n    /* \"#utility.yul\":1037:1038   */\n  dup1\n    /* \"#utility.yul\":1030:1042   */\n  revert\n    /* \"#utility.yul\":981:1044   */\ntag_32:\n    /* \"#utility.yul\":928:1050   */\n  pop\n  jump\t// out\n    /* \"#utility.yul\":1056:1199   */\ntag_16:\n    /* \"#utility.yul\":1113:1118   */\n  0x00\n    /* \"#utility.yul\":1144:1150   */\n  dup2\n    /* \"#utility.yul\":1138:1151   */\n  mload\n    /* \"#utility.yul\":1129:1151   */\n  swap1\n  pop\n    /* \"#utility.yul\":1160:1193   */\n  tag_34\n    /* \"#utility.yul\":1187:1192   */\n  dup2\n    /* \"#utility.yul\":1160:1193   */\n  tag_15\n  jump\t// in\ntag_34:\n    /* \"#utility.yul\":1056:1199   */\n  swap3\n  swap2\n  pop\n  pop\n  jump\t// out\n    /* \"#utility.yul\":1205:1868   */\ntag_3:\n    /* \"#utility.yul\":1293:1299   */\n  0x00\n    /* \"#utility.yul\":1301:1307   */\n  dup1\n    /* \"#utility.yul\":1309:1315   */\n  0x00\n    /* \"#utility.yul\":1358:1360   */\n  0x60\n    /* \"#utility.yul\":1346:1355   */\n  dup5\n    /* \"#utility.yul\":1337:1344   */\n  dup7\n    /* \"#utility.yul\":1333:1356   */\n  sub\n    /* \"#utility.yul\":1329:1361   */\n  slt\n    /* \"#utility.yul\":1326:1445   */\n  iszero\n  tag_36\n  jumpi\n    /* \"#utility.yul\":1364:1443   */\n  tag_37\n  tag_8\n  jump\t// in\ntag_37:\n    /* \"#utility.yul\":1326:1445   */\ntag_36:\n    /* \"#utility.yul\":1484:1485   */\n  0x00\n    /* \"#utility.yul\":1509:1573   */\n  tag_38\n    /* \"#utility.yul\":1565:1572   */\n  dup7\n    /* \"#utility.yul\":1556:1562   */\n  dup3\n    /* \"#utility.yul\":1545:1554   */\n  dup8\n    /* \"#utility.yul\":1541:1563   */\n  add\n    /* \"#utility.yul\":1509:1573   */\n  tag_13\n  jump\t// in\ntag_38:\n    /* \"#utility.yul\":1499:1573   */\n  swap4\n  pop\n    /* \"#utility.yul\":1455:1583   */\n  pop\n    /* \"#utility.yul\":1622:1624   */\n  0x20\n    /* \"#utility.yul\":1648:1712   */\n  tag_39\n    /* \"#utility.yul\":1704:1711   */\n  dup7\n    /* \"#utility.yul\":1695:1701   */\n  dup3\n    /* \"#utility.yul\":1684:1693   */\n  dup8\n    /* \"#utility.yul\":1680:1702   */\n  add\n    /* \"#utility.yul\":1648:1712   */\n  tag_16\n  jump\t// in\ntag_39:\n    /* \"#utility.yul\":1638:1712   */\n  swap3\n  pop\n    /* \"#utility.yul\":1593:1722   */\n  pop\n    /* \"#utility.yul\":1761:1763   */\n  0x40\n    /* \"#utility.yul\":1787:1851   */\n  tag_40\n    /* \"#utility.yul\":1843:1850   */\n  dup7\n    /* \"#utility.yul\":1834:1840   */\n  dup3\n    /* \"#utility.yul\":1823:1832   */\n  dup8\n    /* \"#utility.yul\":1819:1841   */\n  add\n    /* \"#utility.yul\":1787:1851   */\n  tag_16\n  jump\t// in\ntag_40:\n    /* \"#utility.yul\":1777:1851   */\n  swap2\n  pop\n    /* \"#utility.yul\":1732:1861   */\n  pop\n    /* \"#utility.yul\":1205:1868   */\n  swap3\n  pop\n  swap3\n  pop\n  swap3\n  jump\t// out\n    /* \"contracts/RentalContract.sol\":57:1705  contract RentalContract {... */\ntag_6:\n  dataSize(sub_0)\n  dup1\n  dataOffset(sub_0)\n  0x00\n  codecopy\n  0x00\n  return\nstop\n\nsub_0: assembly {\n        /* \"contracts/RentalContract.sol\":57:1705  contract RentalContract {... */\n      mstore(0x40, 0x80)\n      jumpi(tag_1, lt(calldatasize, 0x04))\n      shr(0xe0, calldataload(0x00))\n      dup1\n      0xa709c4fe\n      gt\n      tag_12\n      jumpi\n      dup1\n      0xa709c4fe\n      eq\n      tag_7\n      jumpi\n      dup1\n      0xb14d21a4\n      eq\n      tag_8\n      jumpi\n      dup1\n      0xdc1997ea\n      eq\n      tag_9\n      jumpi\n      dup1\n      0xe693d624\n      eq\n      tag_10\n      jumpi\n      dup1\n      0xf8ef1e13\n      eq\n      tag_11\n      jumpi\n      jump(tag_1)\n    tag_12:\n      dup1\n      0x04397da2\n      eq\n      tag_2\n      jumpi\n      dup1\n      0x1168c9a8\n      eq\n      tag_3\n      jumpi\n      dup1\n      0x24600fc3\n      eq\n      tag_4\n      jumpi\n      dup1\n      0x4d783bc6\n      eq\n      tag_5\n      jumpi\n      dup1\n      0x78e97925\n      eq\n      tag_6\n      jumpi\n    tag_1:\n      0x00\n      dup1\n      revert\n        /* \"contracts/RentalContract.sol\":116:137  address public tenent */\n    tag_2:\n      callvalue\n      dup1\n      iszero\n      tag_13\n      jumpi\n      0x00\n      dup1\n      revert\n    tag_13:\n      pop\n      tag_14\n      tag_15\n      jump\t// in\n    tag_14:\n      mload(0x40)\n      tag_16\n      swap2\n      swap1\n      tag_17\n      jump\t// in\n    tag_16:\n      mload(0x40)\n      dup1\n      swap2\n      sub\n      swap1\n      return\n        /* \"contracts/RentalContract.sol\":1366:1583  function terminateLease() external onlyLandlord {... */\n    tag_3:\n      callvalue\n      dup1\n      iszero\n      tag_18\n      jumpi\n      0x00\n      dup1\n      revert\n    tag_18:\n      pop\n      tag_19\n      tag_20\n      jump\t// in\n    tag_19:\n      stop\n        /* \"contracts/RentalContract.sol\":1589:1703  function withdrawFunds() external onlyLandlord {... */\n    tag_4:\n      callvalue\n      dup1\n      iszero\n      tag_21\n      jumpi\n      0x00\n      dup1\n      revert\n    tag_21:\n      pop\n      tag_22\n      tag_23\n      jump\t// in\n    tag_22:\n      stop\n        /* \"contracts/RentalContract.sol\":225:250  bool public isLeaseActive */\n    tag_5:\n      callvalue\n      dup1\n      iszero\n      tag_24\n      jumpi\n      0x00\n      dup1\n      revert\n    tag_24:\n      pop\n      tag_25\n      tag_26\n      jump\t// in\n    tag_25:\n      mload(0x40)\n      tag_27\n      swap2\n      swap1\n      tag_28\n      jump\t// in\n    tag_27:\n      mload(0x40)\n      dup1\n      swap2\n      sub\n      swap1\n      return\n        /* \"contracts/RentalContract.sol\":198:219  uint public startTime */\n    tag_6:\n      callvalue\n      dup1\n      iszero\n      tag_29\n      jumpi\n      0x00\n      dup1\n      revert\n    tag_29:\n      pop\n      tag_30\n      tag_31\n      jump\t// in\n    tag_30:\n      mload(0x40)\n      tag_32\n      swap2\n      swap1\n      tag_33\n      jump\t// in\n    tag_32:\n      mload(0x40)\n      dup1\n      swap2\n      sub\n      swap1\n      return\n        /* \"contracts/RentalContract.sol\":1128:1360  function payRent() external payable onlyTenent {... */\n    tag_7:\n      tag_34\n      tag_35\n      jump\t// in\n    tag_34:\n      stop\n        /* \"contracts/RentalContract.sol\":942:1122  function activatTheLease () external onlyLandlord {... */\n    tag_8:\n      callvalue\n      dup1\n      iszero\n      tag_36\n      jumpi\n      0x00\n      dup1\n      revert\n    tag_36:\n      pop\n      tag_37\n      tag_38\n      jump\t// in\n    tag_37:\n      stop\n        /* \"contracts/RentalContract.sol\":87:110  address public landlord */\n    tag_9:\n      callvalue\n      dup1\n      iszero\n      tag_39\n      jumpi\n      0x00\n      dup1\n      revert\n    tag_39:\n      pop\n      tag_40\n      tag_41\n      jump\t// in\n    tag_40:\n      mload(0x40)\n      tag_42\n      swap2\n      swap1\n      tag_17\n      jump\t// in\n    tag_42:\n      mload(0x40)\n      dup1\n      swap2\n      sub\n      swap1\n      return\n        /* \"contracts/RentalContract.sol\":171:192  uint public leaseTerm */\n    tag_10:\n      callvalue\n      dup1\n      iszero\n      tag_43\n      jumpi\n      0x00\n      dup1\n      revert\n    tag_43:\n      pop\n      tag_44\n      tag_45\n      jump\t// in\n    tag_44:\n      mload(0x40)\n      tag_46\n      swap2\n      swap1\n      tag_33\n      jump\t// in\n    tag_46:\n      mload(0x40)\n      dup1\n      swap2\n      sub\n      swap1\n      return\n        /* \"contracts/RentalContract.sol\":143:165  uint public rentAmount */\n    tag_11:\n      callvalue\n      dup1\n      iszero\n      tag_47\n      jumpi\n      0x00\n      dup1\n      revert\n    tag_47:\n      pop\n      tag_48\n      tag_49\n      jump\t// in\n    tag_48:\n      mload(0x40)\n      tag_50\n      swap2\n      swap1\n      tag_33\n      jump\t// in\n    tag_50:\n      mload(0x40)\n      dup1\n      swap2\n      sub\n      swap1\n      return\n        /* \"contracts/RentalContract.sol\":116:137  address public tenent */\n    tag_15:\n      0x01\n      0x00\n      swap1\n      sload\n      swap1\n      0x0100\n      exp\n      swap1\n      div\n      0xffffffffffffffffffffffffffffffffffffffff\n      and\n      dup2\n      jump\t// out\n        /* \"contracts/RentalContract.sol\":1366:1583  function terminateLease() external onlyLandlord {... */\n    tag_20:\n        /* \"contracts/RentalContract.sol\":516:524  landlord */\n      0x00\n      dup1\n      sload\n      swap1\n      0x0100\n      exp\n      swap1\n      div\n      0xffffffffffffffffffffffffffffffffffffffff\n      and\n        /* \"contracts/RentalContract.sol\":502:524  msg.sender == landlord */\n      0xffffffffffffffffffffffffffffffffffffffff\n      and\n        /* \"contracts/RentalContract.sol\":502:512  msg.sender */\n      caller\n        /* \"contracts/RentalContract.sol\":502:524  msg.sender == landlord */\n      0xffffffffffffffffffffffffffffffffffffffff\n      and\n      eq\n        /* \"contracts/RentalContract.sol\":494:565  require(msg.sender == landlord, \"Only the landlord can perform action\") */\n      tag_52\n      jumpi\n      mload(0x40)\n      0x08c379a000000000000000000000000000000000000000000000000000000000\n      dup2\n      mstore\n      0x04\n      add\n      tag_53\n      swap1\n      tag_54\n      jump\t// in\n    tag_53:\n      mload(0x40)\n      dup1\n      swap2\n      sub\n      swap1\n      revert\n    tag_52:\n        /* \"contracts/RentalContract.sol\":1463:1472  leaseTerm */\n      sload(0x03)\n        /* \"contracts/RentalContract.sol\":1451:1460  startTime */\n      sload(0x04)\n        /* \"contracts/RentalContract.sol\":1451:1472  startTime + leaseTerm */\n      tag_56\n      swap2\n      swap1\n      tag_57\n      jump\t// in\n    tag_56:\n        /* \"contracts/RentalContract.sol\":1432:1447  block.timestamp */\n      timestamp\n        /* \"contracts/RentalContract.sol\":1432:1472  block.timestamp >= startTime + leaseTerm */\n      lt\n      iszero\n        /* \"contracts/RentalContract.sol\":1424:1505  require(block.timestamp >= startTime + leaseTerm, \"The lease term has not ended\") */\n      tag_58\n      jumpi\n      mload(0x40)\n      0x08c379a000000000000000000000000000000000000000000000000000000000\n      dup2\n      mstore\n      0x04\n      add\n      tag_59\n      swap1\n      tag_60\n      jump\t// in\n    tag_59:\n      mload(0x40)\n      dup1\n      swap2\n      sub\n      swap1\n      revert\n    tag_58:\n        /* \"contracts/RentalContract.sol\":1531:1536  false */\n      0x00\n        /* \"contracts/RentalContract.sol\":1515:1528  isLeaseActive */\n      0x05\n      0x00\n        /* \"contracts/RentalContract.sol\":1515:1536  isLeaseActive = false */\n      0x0100\n      exp\n      dup2\n      sload\n      dup2\n      0xff\n      mul\n      not\n      and\n      swap1\n      dup4\n      iszero\n      iszero\n      mul\n      or\n      swap1\n      sstore\n      pop\n        /* \"contracts/RentalContract.sol\":1567:1575  landlord */\n      0x00\n      dup1\n      sload\n      swap1\n      0x0100\n      exp\n      swap1\n      div\n      0xffffffffffffffffffffffffffffffffffffffff\n      and\n        /* \"contracts/RentalContract.sol\":1551:1576  leaseTerminated(landlord) */\n      0xffffffffffffffffffffffffffffffffffffffff\n      and\n      0x69c633b3b4d8b59bca280364bd6a267e6d1bd1c22fff8fc90dd43945f650f038\n      mload(0x40)\n      mload(0x40)\n      dup1\n      swap2\n      sub\n      swap1\n      log2\n        /* \"contracts/RentalContract.sol\":1366:1583  function terminateLease() external onlyLandlord {... */\n      jump\t// out\n        /* \"contracts/RentalContract.sol\":1589:1703  function withdrawFunds() external onlyLandlord {... */\n    tag_23:\n        /* \"contracts/RentalContract.sol\":516:524  landlord */\n      0x00\n      dup1\n      sload\n      swap1\n      0x0100\n      exp\n      swap1\n      div\n      0xffffffffffffffffffffffffffffffffffffffff\n      and\n        /* \"contracts/RentalContract.sol\":502:524  msg.sender == landlord */\n      0xffffffffffffffffffffffffffffffffffffffff\n      and\n        /* \"contracts/RentalContract.sol\":502:512  msg.sender */\n      caller\n        /* \"contracts/RentalContract.sol\":502:524  msg.sender == landlord */\n      0xffffffffffffffffffffffffffffffffffffffff\n      and\n      eq\n        /* \"contracts/RentalContract.sol\":494:565  require(msg.sender == landlord, \"Only the landlord can perform action\") */\n      tag_62\n      jumpi\n      mload(0x40)\n      0x08c379a000000000000000000000000000000000000000000000000000000000\n      dup2\n      mstore\n      0x04\n      add\n      tag_63\n      swap1\n      tag_54\n      jump\t// in\n    tag_63:\n      mload(0x40)\n      dup1\n      swap2\n      sub\n      swap1\n      revert\n    tag_62:\n        /* \"contracts/RentalContract.sol\":1655:1663  landlord */\n      0x00\n      dup1\n      sload\n      swap1\n      0x0100\n      exp\n      swap1\n      div\n      0xffffffffffffffffffffffffffffffffffffffff\n      and\n        /* \"contracts/RentalContract.sol\":1646:1673  payable (landlord).transfer */\n      0xffffffffffffffffffffffffffffffffffffffff\n      and\n        /* \"contracts/RentalContract.sol\":1646:1696  payable (landlord).transfer(address(this).balance) */\n      0x08fc\n        /* \"contracts/RentalContract.sol\":1674:1695  address(this).balance */\n      selfbalance\n        /* \"contracts/RentalContract.sol\":1646:1696  payable (landlord).transfer(address(this).balance) */\n      swap1\n      dup2\n      iszero\n      mul\n      swap1\n      mload(0x40)\n      0x00\n      mload(0x40)\n      dup1\n      dup4\n      sub\n      dup2\n      dup6\n      dup9\n      dup9\n      call\n      swap4\n      pop\n      pop\n      pop\n      pop\n      iszero\n      dup1\n      iszero\n      tag_66\n      jumpi\n      returndatasize\n      0x00\n      dup1\n      returndatacopy\n      revert(0x00, returndatasize)\n    tag_66:\n      pop\n        /* \"contracts/RentalContract.sol\":1589:1703  function withdrawFunds() external onlyLandlord {... */\n      jump\t// out\n        /* \"contracts/RentalContract.sol\":225:250  bool public isLeaseActive */\n    tag_26:\n      0x05\n      0x00\n      swap1\n      sload\n      swap1\n      0x0100\n      exp\n      swap1\n      div\n      0xff\n      and\n      dup2\n      jump\t// out\n        /* \"contracts/RentalContract.sol\":198:219  uint public startTime */\n    tag_31:\n      sload(0x04)\n      dup2\n      jump\t// out\n        /* \"contracts/RentalContract.sol\":1128:1360  function payRent() external payable onlyTenent {... */\n    tag_35:\n        /* \"contracts/RentalContract.sol\":643:649  tenent */\n      0x01\n      0x00\n      swap1\n      sload\n      swap1\n      0x0100\n      exp\n      swap1\n      div\n      0xffffffffffffffffffffffffffffffffffffffff\n      and\n        /* \"contracts/RentalContract.sol\":629:649  msg.sender == tenent */\n      0xffffffffffffffffffffffffffffffffffffffff\n      and\n        /* \"contracts/RentalContract.sol\":629:639  msg.sender */\n      caller\n        /* \"contracts/RentalContract.sol\":629:649  msg.sender == tenent */\n      0xffffffffffffffffffffffffffffffffffffffff\n      and\n      eq\n        /* \"contracts/RentalContract.sol\":621:688  require(msg.sender == tenent, \"Only tenent can perform the action\") */\n      tag_68\n      jumpi\n      mload(0x40)\n      0x08c379a000000000000000000000000000000000000000000000000000000000\n      dup2\n      mstore\n      0x04\n      add\n      tag_69\n      swap1\n      tag_70\n      jump\t// in\n    tag_69:\n      mload(0x40)\n      dup1\n      swap2\n      sub\n      swap1\n      revert\n    tag_68:\n        /* \"contracts/RentalContract.sol\":1193:1206  isLeaseActive */\n      0x05\n      0x00\n      swap1\n      sload\n      swap1\n      0x0100\n      exp\n      swap1\n      div\n      0xff\n      and\n        /* \"contracts/RentalContract.sol\":1185:1234  require(isLeaseActive, \"The lease is not active\") */\n      tag_72\n      jumpi\n      mload(0x40)\n      0x08c379a000000000000000000000000000000000000000000000000000000000\n      dup2\n      mstore\n      0x04\n      add\n      tag_73\n      swap1\n      tag_74\n      jump\t// in\n    tag_73:\n      mload(0x40)\n      dup1\n      swap2\n      sub\n      swap1\n      revert\n    tag_72:\n        /* \"contracts/RentalContract.sol\":1265:1275  rentAmount */\n      sload(0x02)\n        /* \"contracts/RentalContract.sol\":1252:1261  msg.value */\n      callvalue\n        /* \"contracts/RentalContract.sol\":1252:1275  msg.value == rentAmount */\n      eq\n        /* \"contracts/RentalContract.sol\":1244:1307  require(msg.value == rentAmount, \"Incorrect rent amount sent.\") */\n      tag_75\n      jumpi\n      mload(0x40)\n      0x08c379a000000000000000000000000000000000000000000000000000000000\n      dup2\n      mstore\n      0x04\n      add\n      tag_76\n      swap1\n      tag_77\n      jump\t// in\n    tag_76:\n      mload(0x40)\n      dup1\n      swap2\n      sub\n      swap1\n      revert\n    tag_75:\n        /* \"contracts/RentalContract.sol\":1331:1341  msg.sender */\n      caller\n        /* \"contracts/RentalContract.sol\":1322:1353  RentPaid(msg.sender, msg.value) */\n      0xffffffffffffffffffffffffffffffffffffffff\n      and\n      0x03b5033869479e8a98af42b272f05933f60489fe9fb43d63e11a6c31f3fa7474\n        /* \"contracts/RentalContract.sol\":1343:1352  msg.value */\n      callvalue\n        /* \"contracts/RentalContract.sol\":1322:1353  RentPaid(msg.sender, msg.value) */\n      mload(0x40)\n      tag_78\n      swap2\n      swap1\n      tag_33\n      jump\t// in\n    tag_78:\n      mload(0x40)\n      dup1\n      swap2\n      sub\n      swap1\n      log2\n        /* \"contracts/RentalContract.sol\":1128:1360  function payRent() external payable onlyTenent {... */\n      jump\t// out\n        /* \"contracts/RentalContract.sol\":942:1122  function activatTheLease () external onlyLandlord {... */\n    tag_38:\n        /* \"contracts/RentalContract.sol\":516:524  landlord */\n      0x00\n      dup1\n      sload\n      swap1\n      0x0100\n      exp\n      swap1\n      div\n      0xffffffffffffffffffffffffffffffffffffffff\n      and\n        /* \"contracts/RentalContract.sol\":502:524  msg.sender == landlord */\n      0xffffffffffffffffffffffffffffffffffffffff\n      and\n        /* \"contracts/RentalContract.sol\":502:512  msg.sender */\n      caller\n        /* \"contracts/RentalContract.sol\":502:524  msg.sender == landlord */\n      0xffffffffffffffffffffffffffffffffffffffff\n      and\n      eq\n        /* \"contracts/RentalContract.sol\":494:565  require(msg.sender == landlord, \"Only the landlord can perform action\") */\n      tag_80\n      jumpi\n      mload(0x40)\n      0x08c379a000000000000000000000000000000000000000000000000000000000\n      dup2\n      mstore\n      0x04\n      add\n      tag_81\n      swap1\n      tag_54\n      jump\t// in\n    tag_81:\n      mload(0x40)\n      dup1\n      swap2\n      sub\n      swap1\n      revert\n    tag_80:\n        /* \"contracts/RentalContract.sol\":1018:1022  true */\n      0x01\n        /* \"contracts/RentalContract.sol\":1002:1015  isLeaseActive */\n      0x05\n      0x00\n        /* \"contracts/RentalContract.sol\":1002:1022  isLeaseActive = true */\n      0x0100\n      exp\n      dup2\n      sload\n      dup2\n      0xff\n      mul\n      not\n      and\n      swap1\n      dup4\n      iszero\n      iszero\n      mul\n      or\n      swap1\n      sstore\n      pop\n        /* \"contracts/RentalContract.sol\":1044:1059  block.timestamp */\n      timestamp\n        /* \"contracts/RentalContract.sol\":1032:1041  startTime */\n      0x04\n        /* \"contracts/RentalContract.sol\":1032:1059  startTime = block.timestamp */\n      dup2\n      swap1\n      sstore\n      pop\n        /* \"contracts/RentalContract.sol\":1097:1103  tenent */\n      0x01\n      0x00\n      swap1\n      sload\n      swap1\n      0x0100\n      exp\n      swap1\n      div\n      0xffffffffffffffffffffffffffffffffffffffff\n      and\n        /* \"contracts/RentalContract.sol\":1074:1115  leaseCreated(landlord, tenent, startTime) */\n      0xffffffffffffffffffffffffffffffffffffffff\n      and\n        /* \"contracts/RentalContract.sol\":1087:1095  landlord */\n      0x00\n      dup1\n      sload\n      swap1\n      0x0100\n      exp\n      swap1\n      div\n      0xffffffffffffffffffffffffffffffffffffffff\n      and\n        /* \"contracts/RentalContract.sol\":1074:1115  leaseCreated(landlord, tenent, startTime) */\n      0xffffffffffffffffffffffffffffffffffffffff\n      and\n      0xdf93d9e98ea70b3b681b0019d6c90989f21bc26acc139236a7b8c44f8bc28afa\n        /* \"contracts/RentalContract.sol\":1105:1114  startTime */\n      sload(0x04)\n        /* \"contracts/RentalContract.sol\":1074:1115  leaseCreated(landlord, tenent, startTime) */\n      mload(0x40)\n      tag_83\n      swap2\n      swap1\n      tag_33\n      jump\t// in\n    tag_83:\n      mload(0x40)\n      dup1\n      swap2\n      sub\n      swap1\n      log3\n        /* \"contracts/RentalContract.sol\":942:1122  function activatTheLease () external onlyLandlord {... */\n      jump\t// out\n        /* \"contracts/RentalContract.sol\":87:110  address public landlord */\n    tag_41:\n      0x00\n      dup1\n      sload\n      swap1\n      0x0100\n      exp\n      swap1\n      div\n      0xffffffffffffffffffffffffffffffffffffffff\n      and\n      dup2\n      jump\t// out\n        /* \"contracts/RentalContract.sol\":171:192  uint public leaseTerm */\n    tag_45:\n      sload(0x03)\n      dup2\n      jump\t// out\n        /* \"contracts/RentalContract.sol\":143:165  uint public rentAmount */\n    tag_49:\n      sload(0x02)\n      dup2\n      jump\t// out\n        /* \"#utility.yul\":7:133   */\n    tag_84:\n        /* \"#utility.yul\":44:51   */\n      0x00\n        /* \"#utility.yul\":84:126   */\n      0xffffffffffffffffffffffffffffffffffffffff\n        /* \"#utility.yul\":77:82   */\n      dup3\n        /* \"#utility.yul\":73:127   */\n      and\n        /* \"#utility.yul\":62:127   */\n      swap1\n      pop\n        /* \"#utility.yul\":7:133   */\n      swap2\n      swap1\n      pop\n      jump\t// out\n        /* \"#utility.yul\":139:235   */\n    tag_85:\n        /* \"#utility.yul\":176:183   */\n      0x00\n        /* \"#utility.yul\":205:229   */\n      tag_106\n        /* \"#utility.yul\":223:228   */\n      dup3\n        /* \"#utility.yul\":205:229   */\n      tag_84\n      jump\t// in\n    tag_106:\n        /* \"#utility.yul\":194:229   */\n      swap1\n      pop\n        /* \"#utility.yul\":139:235   */\n      swap2\n      swap1\n      pop\n      jump\t// out\n        /* \"#utility.yul\":241:359   */\n    tag_86:\n        /* \"#utility.yul\":328:352   */\n      tag_108\n        /* \"#utility.yul\":346:351   */\n      dup2\n        /* \"#utility.yul\":328:352   */\n      tag_85\n      jump\t// in\n    tag_108:\n        /* \"#utility.yul\":323:326   */\n      dup3\n        /* \"#utility.yul\":316:353   */\n      mstore\n        /* \"#utility.yul\":241:359   */\n      pop\n      pop\n      jump\t// out\n        /* \"#utility.yul\":365:587   */\n    tag_17:\n        /* \"#utility.yul\":458:462   */\n      0x00\n        /* \"#utility.yul\":496:498   */\n      0x20\n        /* \"#utility.yul\":485:494   */\n      dup3\n        /* \"#utility.yul\":481:499   */\n      add\n        /* \"#utility.yul\":473:499   */\n      swap1\n      pop\n        /* \"#utility.yul\":509:580   */\n      tag_110\n        /* \"#utility.yul\":577:578   */\n      0x00\n        /* \"#utility.yul\":566:575   */\n      dup4\n        /* \"#utility.yul\":562:579   */\n      add\n        /* \"#utility.yul\":553:559   */\n      dup5\n        /* \"#utility.yul\":509:580   */\n      tag_86\n      jump\t// in\n    tag_110:\n        /* \"#utility.yul\":365:587   */\n      swap3\n      swap2\n      pop\n      pop\n      jump\t// out\n        /* \"#utility.yul\":593:683   */\n    tag_87:\n        /* \"#utility.yul\":627:634   */\n      0x00\n        /* \"#utility.yul\":670:675   */\n      dup2\n        /* \"#utility.yul\":663:676   */\n      iszero\n        /* \"#utility.yul\":656:677   */\n      iszero\n        /* \"#utility.yul\":645:677   */\n      swap1\n      pop\n        /* \"#utility.yul\":593:683   */\n      swap2\n      swap1\n      pop\n      jump\t// out\n        /* \"#utility.yul\":689:798   */\n    tag_88:\n        /* \"#utility.yul\":770:791   */\n      tag_113\n        /* \"#utility.yul\":785:790   */\n      dup2\n        /* \"#utility.yul\":770:791   */\n      tag_87\n      jump\t// in\n    tag_113:\n        /* \"#utility.yul\":765:768   */\n      dup3\n        /* \"#utility.yul\":758:792   */\n      mstore\n        /* \"#utility.yul\":689:798   */\n      pop\n      pop\n      jump\t// out\n        /* \"#utility.yul\":804:1014   */\n    tag_28:\n        /* \"#utility.yul\":891:895   */\n      0x00\n        /* \"#utility.yul\":929:931   */\n      0x20\n        /* \"#utility.yul\":918:927   */\n      dup3\n        /* \"#utility.yul\":914:932   */\n      add\n        /* \"#utility.yul\":906:932   */\n      swap1\n      pop\n        /* \"#utility.yul\":942:1007   */\n      tag_115\n        /* \"#utility.yul\":1004:1005   */\n      0x00\n        /* \"#utility.yul\":993:1002   */\n      dup4\n        /* \"#utility.yul\":989:1006   */\n      add\n        /* \"#utility.yul\":980:986   */\n      dup5\n        /* \"#utility.yul\":942:1007   */\n      tag_88\n      jump\t// in\n    tag_115:\n        /* \"#utility.yul\":804:1014   */\n      swap3\n      swap2\n      pop\n      pop\n      jump\t// out\n        /* \"#utility.yul\":1020:1097   */\n    tag_89:\n        /* \"#utility.yul\":1057:1064   */\n      0x00\n        /* \"#utility.yul\":1086:1091   */\n      dup2\n        /* \"#utility.yul\":1075:1091   */\n      swap1\n      pop\n        /* \"#utility.yul\":1020:1097   */\n      swap2\n      swap1\n      pop\n      jump\t// out\n        /* \"#utility.yul\":1103:1221   */\n    tag_90:\n        /* \"#utility.yul\":1190:1214   */\n      tag_118\n        /* \"#utility.yul\":1208:1213   */\n      dup2\n        /* \"#utility.yul\":1190:1214   */\n      tag_89\n      jump\t// in\n    tag_118:\n        /* \"#utility.yul\":1185:1188   */\n      dup3\n        /* \"#utility.yul\":1178:1215   */\n      mstore\n        /* \"#utility.yul\":1103:1221   */\n      pop\n      pop\n      jump\t// out\n        /* \"#utility.yul\":1227:1449   */\n    tag_33:\n        /* \"#utility.yul\":1320:1324   */\n      0x00\n        /* \"#utility.yul\":1358:1360   */\n      0x20\n        /* \"#utility.yul\":1347:1356   */\n      dup3\n        /* \"#utility.yul\":1343:1361   */\n      add\n        /* \"#utility.yul\":1335:1361   */\n      swap1\n      pop\n        /* \"#utility.yul\":1371:1442   */\n      tag_120\n        /* \"#utility.yul\":1439:1440   */\n      0x00\n        /* \"#utility.yul\":1428:1437   */\n      dup4\n        /* \"#utility.yul\":1424:1441   */\n      add\n        /* \"#utility.yul\":1415:1421   */\n      dup5\n        /* \"#utility.yul\":1371:1442   */\n      tag_90\n      jump\t// in\n    tag_120:\n        /* \"#utility.yul\":1227:1449   */\n      swap3\n      swap2\n      pop\n      pop\n      jump\t// out\n        /* \"#utility.yul\":1455:1624   */\n    tag_91:\n        /* \"#utility.yul\":1539:1550   */\n      0x00\n        /* \"#utility.yul\":1573:1579   */\n      dup3\n        /* \"#utility.yul\":1568:1571   */\n      dup3\n        /* \"#utility.yul\":1561:1580   */\n      mstore\n        /* \"#utility.yul\":1613:1617   */\n      0x20\n        /* \"#utility.yul\":1608:1611   */\n      dup3\n        /* \"#utility.yul\":1604:1618   */\n      add\n        /* \"#utility.yul\":1589:1618   */\n      swap1\n      pop\n        /* \"#utility.yul\":1455:1624   */\n      swap3\n      swap2\n      pop\n      pop\n      jump\t// out\n        /* \"#utility.yul\":1630:1853   */\n    tag_92:\n        /* \"#utility.yul\":1770:1804   */\n      0x4f6e6c7920746865206c616e646c6f72642063616e20706572666f726d206163\n        /* \"#utility.yul\":1766:1767   */\n      0x00\n        /* \"#utility.yul\":1758:1764   */\n      dup3\n        /* \"#utility.yul\":1754:1768   */\n      add\n        /* \"#utility.yul\":1747:1805   */\n      mstore\n        /* \"#utility.yul\":1839:1845   */\n      0x74696f6e00000000000000000000000000000000000000000000000000000000\n        /* \"#utility.yul\":1834:1836   */\n      0x20\n        /* \"#utility.yul\":1826:1832   */\n      dup3\n        /* \"#utility.yul\":1822:1837   */\n      add\n        /* \"#utility.yul\":1815:1846   */\n      mstore\n        /* \"#utility.yul\":1630:1853   */\n      pop\n      jump\t// out\n        /* \"#utility.yul\":1859:2225   */\n    tag_93:\n        /* \"#utility.yul\":2001:2004   */\n      0x00\n        /* \"#utility.yul\":2022:2089   */\n      tag_124\n        /* \"#utility.yul\":2086:2088   */\n      0x24\n        /* \"#utility.yul\":2081:2084   */\n      dup4\n        /* \"#utility.yul\":2022:2089   */\n      tag_91\n      jump\t// in\n    tag_124:\n        /* \"#utility.yul\":2015:2089   */\n      swap2\n      pop\n        /* \"#utility.yul\":2098:2191   */\n      tag_125\n        /* \"#utility.yul\":2187:2190   */\n      dup3\n        /* \"#utility.yul\":2098:2191   */\n      tag_92\n      jump\t// in\n    tag_125:\n        /* \"#utility.yul\":2216:2218   */\n      0x40\n        /* \"#utility.yul\":2211:2214   */\n      dup3\n        /* \"#utility.yul\":2207:2219   */\n      add\n        /* \"#utility.yul\":2200:2219   */\n      swap1\n      pop\n        /* \"#utility.yul\":1859:2225   */\n      swap2\n      swap1\n      pop\n      jump\t// out\n        /* \"#utility.yul\":2231:2650   */\n    tag_54:\n        /* \"#utility.yul\":2397:2401   */\n      0x00\n        /* \"#utility.yul\":2435:2437   */\n      0x20\n        /* \"#utility.yul\":2424:2433   */\n      dup3\n        /* \"#utility.yul\":2420:2438   */\n      add\n        /* \"#utility.yul\":2412:2438   */\n      swap1\n      pop\n        /* \"#utility.yul\":2484:2493   */\n      dup2\n        /* \"#utility.yul\":2478:2482   */\n      dup2\n        /* \"#utility.yul\":2474:2494   */\n      sub\n        /* \"#utility.yul\":2470:2471   */\n      0x00\n        /* \"#utility.yul\":2459:2468   */\n      dup4\n        /* \"#utility.yul\":2455:2472   */\n      add\n        /* \"#utility.yul\":2448:2495   */\n      mstore\n        /* \"#utility.yul\":2512:2643   */\n      tag_127\n        /* \"#utility.yul\":2638:2642   */\n      dup2\n        /* \"#utility.yul\":2512:2643   */\n      tag_93\n      jump\t// in\n    tag_127:\n        /* \"#utility.yul\":2504:2643   */\n      swap1\n      pop\n        /* \"#utility.yul\":2231:2650   */\n      swap2\n      swap1\n      pop\n      jump\t// out\n        /* \"#utility.yul\":2656:2836   */\n    tag_94:\n        /* \"#utility.yul\":2704:2781   */\n      0x4e487b7100000000000000000000000000000000000000000000000000000000\n        /* \"#utility.yul\":2701:2702   */\n      0x00\n        /* \"#utility.yul\":2694:2782   */\n      mstore\n        /* \"#utility.yul\":2801:2805   */\n      0x11\n        /* \"#utility.yul\":2798:2799   */\n      0x04\n        /* \"#utility.yul\":2791:2806   */\n      mstore\n        /* \"#utility.yul\":2825:2829   */\n      0x24\n        /* \"#utility.yul\":2822:2823   */\n      0x00\n        /* \"#utility.yul\":2815:2830   */\n      revert\n        /* \"#utility.yul\":2842:3033   */\n    tag_57:\n        /* \"#utility.yul\":2882:2885   */\n      0x00\n        /* \"#utility.yul\":2901:2921   */\n      tag_130\n        /* \"#utility.yul\":2919:2920   */\n      dup3\n        /* \"#utility.yul\":2901:2921   */\n      tag_89\n      jump\t// in\n    tag_130:\n        /* \"#utility.yul\":2896:2921   */\n      swap2\n      pop\n        /* \"#utility.yul\":2935:2955   */\n      tag_131\n        /* \"#utility.yul\":2953:2954   */\n      dup4\n        /* \"#utility.yul\":2935:2955   */\n      tag_89\n      jump\t// in\n    tag_131:\n        /* \"#utility.yul\":2930:2955   */\n      swap3\n      pop\n        /* \"#utility.yul\":2978:2979   */\n      dup3\n        /* \"#utility.yul\":2975:2976   */\n      dup3\n        /* \"#utility.yul\":2971:2980   */\n      add\n        /* \"#utility.yul\":2964:2980   */\n      swap1\n      pop\n        /* \"#utility.yul\":2999:3002   */\n      dup1\n        /* \"#utility.yul\":2996:2997   */\n      dup3\n        /* \"#utility.yul\":2993:3003   */\n      gt\n        /* \"#utility.yul\":2990:3026   */\n      iszero\n      tag_132\n      jumpi\n        /* \"#utility.yul\":3006:3024   */\n      tag_133\n      tag_94\n      jump\t// in\n    tag_133:\n        /* \"#utility.yul\":2990:3026   */\n    tag_132:\n        /* \"#utility.yul\":2842:3033   */\n      swap3\n      swap2\n      pop\n      pop\n      jump\t// out\n        /* \"#utility.yul\":3039:3217   */\n    tag_95:\n        /* \"#utility.yul\":3179:3209   */\n      0x546865206c65617365207465726d20686173206e6f7420656e64656400000000\n        /* \"#utility.yul\":3175:3176   */\n      0x00\n        /* \"#utility.yul\":3167:3173   */\n      dup3\n        /* \"#utility.yul\":3163:3177   */\n      add\n        /* \"#utility.yul\":3156:3210   */\n      mstore\n        /* \"#utility.yul\":3039:3217   */\n      pop\n      jump\t// out\n        /* \"#utility.yul\":3223:3589   */\n    tag_96:\n        /* \"#utility.yul\":3365:3368   */\n      0x00\n        /* \"#utility.yul\":3386:3453   */\n      tag_136\n        /* \"#utility.yul\":3450:3452   */\n      0x1c\n        /* \"#utility.yul\":3445:3448   */\n      dup4\n        /* \"#utility.yul\":3386:3453   */\n      tag_91\n      jump\t// in\n    tag_136:\n        /* \"#utility.yul\":3379:3453   */\n      swap2\n      pop\n        /* \"#utility.yul\":3462:3555   */\n      tag_137\n        /* \"#utility.yul\":3551:3554   */\n      dup3\n        /* \"#utility.yul\":3462:3555   */\n      tag_95\n      jump\t// in\n    tag_137:\n        /* \"#utility.yul\":3580:3582   */\n      0x20\n        /* \"#utility.yul\":3575:3578   */\n      dup3\n        /* \"#utility.yul\":3571:3583   */\n      add\n        /* \"#utility.yul\":3564:3583   */\n      swap1\n      pop\n        /* \"#utility.yul\":3223:3589   */\n      swap2\n      swap1\n      pop\n      jump\t// out\n        /* \"#utility.yul\":3595:4014   */\n    tag_60:\n        /* \"#utility.yul\":3761:3765   */\n      0x00\n        /* \"#utility.yul\":3799:3801   */\n      0x20\n        /* \"#utility.yul\":3788:3797   */\n      dup3\n        /* \"#utility.yul\":3784:3802   */\n      add\n        /* \"#utility.yul\":3776:3802   */\n      swap1\n      pop\n        /* \"#utility.yul\":3848:3857   */\n      dup2\n        /* \"#utility.yul\":3842:3846   */\n      dup2\n        /* \"#utility.yul\":3838:3858   */\n      sub\n        /* \"#utility.yul\":3834:3835   */\n      0x00\n        /* \"#utility.yul\":3823:3832   */\n      dup4\n        /* \"#utility.yul\":3819:3836   */\n      add\n        /* \"#utility.yul\":3812:3859   */\n      mstore\n        /* \"#utility.yul\":3876:4007   */\n      tag_139\n        /* \"#utility.yul\":4002:4006   */\n      dup2\n        /* \"#utility.yul\":3876:4007   */\n      tag_96\n      jump\t// in\n    tag_139:\n        /* \"#utility.yul\":3868:4007   */\n      swap1\n      pop\n        /* \"#utility.yul\":3595:4014   */\n      swap2\n      swap1\n      pop\n      jump\t// out\n        /* \"#utility.yul\":4020:4241   */\n    tag_97:\n        /* \"#utility.yul\":4160:4194   */\n      0x4f6e6c792074656e656e742063616e20706572666f726d207468652061637469\n        /* \"#utility.yul\":4156:4157   */\n      0x00\n        /* \"#utility.yul\":4148:4154   */\n      dup3\n        /* \"#utility.yul\":4144:4158   */\n      add\n        /* \"#utility.yul\":4137:4195   */\n      mstore\n        /* \"#utility.yul\":4229:4233   */\n      0x6f6e000000000000000000000000000000000000000000000000000000000000\n        /* \"#utility.yul\":4224:4226   */\n      0x20\n        /* \"#utility.yul\":4216:4222   */\n      dup3\n        /* \"#utility.yul\":4212:4227   */\n      add\n        /* \"#utility.yul\":4205:4234   */\n      mstore\n        /* \"#utility.yul\":4020:4241   */\n      pop\n      jump\t// out\n        /* \"#utility.yul\":4247:4613   */\n    tag_98:\n        /* \"#utility.yul\":4389:4392   */\n      0x00\n        /* \"#utility.yul\":4410:4477   */\n      tag_142\n        /* \"#utility.yul\":4474:4476   */\n      0x22\n        /* \"#utility.yul\":4469:4472   */\n      dup4\n        /* \"#utility.yul\":4410:4477   */\n      tag_91\n      jump\t// in\n    tag_142:\n        /* \"#utility.yul\":4403:4477   */\n      swap2\n      pop\n        /* \"#utility.yul\":4486:4579   */\n      tag_143\n        /* \"#utility.yul\":4575:4578   */\n      dup3\n        /* \"#utility.yul\":4486:4579   */\n      tag_97\n      jump\t// in\n    tag_143:\n        /* \"#utility.yul\":4604:4606   */\n      0x40\n        /* \"#utility.yul\":4599:4602   */\n      dup3\n        /* \"#utility.yul\":4595:4607   */\n      add\n        /* \"#utility.yul\":4588:4607   */\n      swap1\n      pop\n        /* \"#utility.yul\":4247:4613   */\n      swap2\n      swap1\n      pop\n      jump\t// out\n        /* \"#utility.yul\":4619:5038   */\n    tag_70:\n        /* \"#utility.yul\":4785:4789   */\n      0x00\n        /* \"#utility.yul\":4823:4825   */\n      0x20\n        /* \"#utility.yul\":4812:4821   */\n      dup3\n        /* \"#utility.yul\":4808:4826   */\n      add\n        /* \"#utility.yul\":4800:4826   */\n      swap1\n      pop\n        /* \"#utility.yul\":4872:4881   */\n      dup2\n        /* \"#utility.yul\":4866:4870   */\n      dup2\n        /* \"#utility.yul\":4862:4882   */\n      sub\n        /* \"#utility.yul\":4858:4859   */\n      0x00\n        /* \"#utility.yul\":4847:4856   */\n      dup4\n        /* \"#utility.yul\":4843:4860   */\n      add\n        /* \"#utility.yul\":4836:4883   */\n      mstore\n        /* \"#utility.yul\":4900:5031   */\n      tag_145\n        /* \"#utility.yul\":5026:5030   */\n      dup2\n        /* \"#utility.yul\":4900:5031   */\n      tag_98\n      jump\t// in\n    tag_145:\n        /* \"#utility.yul\":4892:5031   */\n      swap1\n      pop\n        /* \"#utility.yul\":4619:5038   */\n      swap2\n      swap1\n      pop\n      jump\t// out\n        /* \"#utility.yul\":5044:5217   */\n    tag_99:\n        /* \"#utility.yul\":5184:5209   */\n      0x546865206c65617365206973206e6f7420616374697665000000000000000000\n        /* \"#utility.yul\":5180:5181   */\n      0x00\n        /* \"#utility.yul\":5172:5178   */\n      dup3\n        /* \"#utility.yul\":5168:5182   */\n      add\n        /* \"#utility.yul\":5161:5210   */\n      mstore\n        /* \"#utility.yul\":5044:5217   */\n      pop\n      jump\t// out\n        /* \"#utility.yul\":5223:5589   */\n    tag_100:\n        /* \"#utility.yul\":5365:5368   */\n      0x00\n        /* \"#utility.yul\":5386:5453   */\n      tag_148\n        /* \"#utility.yul\":5450:5452   */\n      0x17\n        /* \"#utility.yul\":5445:5448   */\n      dup4\n        /* \"#utility.yul\":5386:5453   */\n      tag_91\n      jump\t// in\n    tag_148:\n        /* \"#utility.yul\":5379:5453   */\n      swap2\n      pop\n        /* \"#utility.yul\":5462:5555   */\n      tag_149\n        /* \"#utility.yul\":5551:5554   */\n      dup3\n        /* \"#utility.yul\":5462:5555   */\n      tag_99\n      jump\t// in\n    tag_149:\n        /* \"#utility.yul\":5580:5582   */\n      0x20\n        /* \"#utility.yul\":5575:5578   */\n      dup3\n        /* \"#utility.yul\":5571:5583   */\n      add\n        /* \"#utility.yul\":5564:5583   */\n      swap1\n      pop\n        /* \"#utility.yul\":5223:5589   */\n      swap2\n      swap1\n      pop\n      jump\t// out\n        /* \"#utility.yul\":5595:6014   */\n    tag_74:\n        /* \"#utility.yul\":5761:5765   */\n      0x00\n        /* \"#utility.yul\":5799:5801   */\n      0x20\n        /* \"#utility.yul\":5788:5797   */\n      dup3\n        /* \"#utility.yul\":5784:5802   */\n      add\n        /* \"#utility.yul\":5776:5802   */\n      swap1\n      pop\n        /* \"#utility.yul\":5848:5857   */\n      dup2\n        /* \"#utility.yul\":5842:5846   */\n      dup2\n        /* \"#utility.yul\":5838:5858   */\n      sub\n        /* \"#utility.yul\":5834:5835   */\n      0x00\n        /* \"#utility.yul\":5823:5832   */\n      dup4\n        /* \"#utility.yul\":5819:5836   */\n      add\n        /* \"#utility.yul\":5812:5859   */\n      mstore\n        /* \"#utility.yul\":5876:6007   */\n      tag_151\n        /* \"#utility.yul\":6002:6006   */\n      dup2\n        /* \"#utility.yul\":5876:6007   */\n      tag_100\n      jump\t// in\n    tag_151:\n        /* \"#utility.yul\":5868:6007   */\n      swap1\n      pop\n        /* \"#utility.yul\":5595:6014   */\n      swap2\n      swap1\n      pop\n      jump\t// out\n        /* \"#utility.yul\":6020:6197   */\n    tag_101:\n        /* \"#utility.yul\":6160:6189   */\n      0x496e636f72726563742072656e7420616d6f756e742073656e742e0000000000\n        /* \"#utility.yul\":6156:6157   */\n      0x00\n        /* \"#utility.yul\":6148:6154   */\n      dup3\n        /* \"#utility.yul\":6144:6158   */\n      add\n        /* \"#utility.yul\":6137:6190   */\n      mstore\n        /* \"#utility.yul\":6020:6197   */\n      pop\n      jump\t// out\n        /* \"#utility.yul\":6203:6569   */\n    tag_102:\n        /* \"#utility.yul\":6345:6348   */\n      0x00\n        /* \"#utility.yul\":6366:6433   */\n      tag_154\n        /* \"#utility.yul\":6430:6432   */\n      0x1b\n        /* \"#utility.yul\":6425:6428   */\n      dup4\n        /* \"#utility.yul\":6366:6433   */\n      tag_91\n      jump\t// in\n    tag_154:\n        /* \"#utility.yul\":6359:6433   */\n      swap2\n      pop\n        /* \"#utility.yul\":6442:6535   */\n      tag_155\n        /* \"#utility.yul\":6531:6534   */\n      dup3\n        /* \"#utility.yul\":6442:6535   */\n      tag_101\n      jump\t// in\n    tag_155:\n        /* \"#utility.yul\":6560:6562   */\n      0x20\n        /* \"#utility.yul\":6555:6558   */\n      dup3\n        /* \"#utility.yul\":6551:6563   */\n      add\n        /* \"#utility.yul\":6544:6563   */\n      swap1\n      pop\n        /* \"#utility.yul\":6203:6569   */\n      swap2\n      swap1\n      pop\n      jump\t// out\n        /* \"#utility.yul\":6575:6994   */\n    tag_77:\n        /* \"#utility.yul\":6741:6745   */\n      0x00\n        /* \"#utility.yul\":6779:6781   */\n      0x20\n        /* \"#utility.yul\":6768:6777   */\n      dup3\n        /* \"#utility.yul\":6764:6782   */\n      add\n        /* \"#utility.yul\":6756:6782   */\n      swap1\n      pop\n        /* \"#utility.yul\":6828:6837   */\n      dup2\n        /* \"#utility.yul\":6822:6826   */\n      dup2\n        /* \"#utility.yul\":6818:6838   */\n      sub\n        /* \"#utility.yul\":6814:6815   */\n      0x00\n        /* \"#utility.yul\":6803:6812   */\n      dup4\n        /* \"#utility.yul\":6799:6816   */\n      add\n        /* \"#utility.yul\":6792:6839   */\n      mstore\n        /* \"#utility.yul\":6856:6987   */\n      tag_157\n        /* \"#utility.yul\":6982:6986   */\n      dup2\n        /* \"#utility.yul\":6856:6987   */\n      tag_102\n      jump\t// in\n    tag_157:\n        /* \"#utility.yul\":6848:6987   */\n      swap1\n      pop\n        /* \"#utility.yul\":6575:6994   */\n      swap2\n      swap1\n      pop\n      jump\t// out\n\n    auxdata: 0xa264697066735822122098ecb992e903e7b0209095cb498f2aa3b7a8d4f4242ca3b7e807430e106e174064736f6c63430008100033\n}\n",
				"bytecode": {
					"linkReferences": {},
					"object": "60806040523480156200001157600080fd5b5060405162000d3338038062000d33833981810160405281019062000037919062000174565b336000806101000a81548173ffffffffffffffffffffffffffffffffffffffff021916908373ffffffffffffffffffffffffffffffffffffffff16021790555082600160006101000a81548173ffffffffffffffffffffffffffffffffffffffff021916908373ffffffffffffffffffffffffffffffffffffffff1602179055508160028190555080600381905550505050620001d0565b600080fd5b600073ffffffffffffffffffffffffffffffffffffffff82169050919050565b60006200010182620000d4565b9050919050565b6200011381620000f4565b81146200011f57600080fd5b50565b600081519050620001338162000108565b92915050565b6000819050919050565b6200014e8162000139565b81146200015a57600080fd5b50565b6000815190506200016e8162000143565b92915050565b60008060006060848603121562000190576200018f620000cf565b5b6000620001a08682870162000122565b9350506020620001b3868287016200015d565b9250506040620001c6868287016200015d565b9150509250925092565b610b5380620001e06000396000f3fe6080604052600436106100915760003560e01c8063a709c4fe11610059578063a709c4fe14610145578063b14d21a41461014f578063dc1997ea14610166578063e693d62414610191578063f8ef1e13146101bc57610091565b806304397da2146100965780631168c9a8146100c157806324600fc3146100d85780634d783bc6146100ef57806378e979251461011a575b600080fd5b3480156100a257600080fd5b506100ab6101e7565b6040516100b891906107bc565b60405180910390f35b3480156100cd57600080fd5b506100d661020d565b005b3480156100e457600080fd5b506100ed61036d565b005b3480156100fb57600080fd5b50610104610464565b60405161011191906107f2565b60405180910390f35b34801561012657600080fd5b5061012f610477565b60405161013c9190610826565b60405180910390f35b61014d61047d565b005b34801561015b57600080fd5b506101646105f0565b005b34801561017257600080fd5b5061017b61074b565b60405161018891906107bc565b60405180910390f35b34801561019d57600080fd5b506101a661076f565b6040516101b39190610826565b60405180910390f35b3480156101c857600080fd5b506101d1610775565b6040516101de9190610826565b60405180910390f35b600160009054906101000a900473ffffffffffffffffffffffffffffffffffffffff1681565b60008054906101000a900473ffffffffffffffffffffffffffffffffffffffff1673ffffffffffffffffffffffffffffffffffffffff163373ffffffffffffffffffffffffffffffffffffffff161461029b576040517f08c379a0000000000000000000000000000000000000000000000000000000008152600401610292906108c4565b60405180910390fd5b6003546004546102ab9190610913565b4210156102ed576040517f08c379a00000000000000000000000000000000000000000000000000000000081526004016102e490610993565b60405180910390fd5b6000600560006101000a81548160ff02191690831515021790555060008054906101000a900473ffffffffffffffffffffffffffffffffffffffff1673ffffffffffffffffffffffffffffffffffffffff167f69c633b3b4d8b59bca280364bd6a267e6d1bd1c22fff8fc90dd43945f650f03860405160405180910390a2565b60008054906101000a900473ffffffffffffffffffffffffffffffffffffffff1673ffffffffffffffffffffffffffffffffffffffff163373ffffffffffffffffffffffffffffffffffffffff16146103fb576040517f08c379a00000000000000000000000000000000000000000000000000000000081526004016103f2906108c4565b60405180910390fd5b60008054906101000a900473ffffffffffffffffffffffffffffffffffffffff1673ffffffffffffffffffffffffffffffffffffffff166108fc479081150290604051600060405180830381858888f19350505050158015610461573d6000803e3d6000fd5b50565b600560009054906101000a900460ff1681565b60045481565b600160009054906101000a900473ffffffffffffffffffffffffffffffffffffffff1673ffffffffffffffffffffffffffffffffffffffff163373ffffffffffffffffffffffffffffffffffffffff161461050d576040517f08c379a000000000000000000000000000000000000000000000000000000000815260040161050490610a25565b60405180910390fd5b600560009054906101000a900460ff1661055c576040517f08c379a000000000000000000000000000000000000000000000000000000000815260040161055390610a91565b60405180910390fd5b60025434146105a0576040517f08c379a000000000000000000000000000000000000000000000000000000000815260040161059790610afd565b60405180910390fd5b3373ffffffffffffffffffffffffffffffffffffffff167f03b5033869479e8a98af42b272f05933f60489fe9fb43d63e11a6c31f3fa7474346040516105e69190610826565b60405180910390a2565b60008054906101000a900473ffffffffffffffffffffffffffffffffffffffff1673ffffffffffffffffffffffffffffffffffffffff163373ffffffffffffffffffffffffffffffffffffffff161461067e576040517f08c379a0000000000000000000000000000000000000000000000000000000008152600401610675906108c4565b60405180910390fd5b6001600560006101000a81548160ff02191690831515021790555042600481905550600160009054906101000a900473ffffffffffffffffffffffffffffffffffffffff1673ffffffffffffffffffffffffffffffffffffffff1660008054906101000a900473ffffffffffffffffffffffffffffffffffffffff1673ffffffffffffffffffffffffffffffffffffffff167fdf93d9e98ea70b3b681b0019d6c90989f21bc26acc139236a7b8c44f8bc28afa6004546040516107419190610826565b60405180910390a3565b60008054906101000a900473ffffffffffffffffffffffffffffffffffffffff1681565b60035481565b60025481565b600073ffffffffffffffffffffffffffffffffffffffff82169050919050565b60006107a68261077b565b9050919050565b6107b68161079b565b82525050565b60006020820190506107d160008301846107ad565b92915050565b60008115159050919050565b6107ec816107d7565b82525050565b600060208201905061080760008301846107e3565b92915050565b6000819050919050565b6108208161080d565b82525050565b600060208201905061083b6000830184610817565b92915050565b600082825260208201905092915050565b7f4f6e6c7920746865206c616e646c6f72642063616e20706572666f726d20616360008201527f74696f6e00000000000000000000000000000000000000000000000000000000602082015250565b60006108ae602483610841565b91506108b982610852565b604082019050919050565b600060208201905081810360008301526108dd816108a1565b9050919050565b7f4e487b7100000000000000000000000000000000000000000000000000000000600052601160045260246000fd5b600061091e8261080d565b91506109298361080d565b9250828201905080821115610941576109406108e4565b5b92915050565b7f546865206c65617365207465726d20686173206e6f7420656e64656400000000600082015250565b600061097d601c83610841565b915061098882610947565b602082019050919050565b600060208201905081810360008301526109ac81610970565b9050919050565b7f4f6e6c792074656e656e742063616e20706572666f726d20746865206163746960008201527f6f6e000000000000000000000000000000000000000000000000000000000000602082015250565b6000610a0f602283610841565b9150610a1a826109b3565b604082019050919050565b60006020820190508181036000830152610a3e81610a02565b9050919050565b7f546865206c65617365206973206e6f7420616374697665000000000000000000600082015250565b6000610a7b601783610841565b9150610a8682610a45565b602082019050919050565b60006020820190508181036000830152610aaa81610a6e565b9050919050565b7f496e636f72726563742072656e7420616d6f756e742073656e742e0000000000600082015250565b6000610ae7601b83610841565b9150610af282610ab1565b602082019050919050565b60006020820190508181036000830152610b1681610ada565b905091905056fea264697066735822122098ecb992e903e7b0209095cb498f2aa3b7a8d4f4242ca3b7e807430e106e174064736f6c63430008100033",
					"opcodes": "PUSH1 0x80 PUSH1 0x40 MSTORE CALLVALUE DUP1 ISZERO PUSH3 0x11 JUMPI PUSH1 0x0 DUP1 REVERT JUMPDEST POP PUSH1 0x40 MLOAD PUSH3 0xD33 CODESIZE SUB DUP1 PUSH3 0xD33 DUP4 CODECOPY DUP2 DUP2 ADD PUSH1 0x40 MSTORE DUP2 ADD SWAP1 PUSH3 0x37 SWAP2 SWAP1 PUSH3 0x174 JUMP JUMPDEST CALLER PUSH1 0x0 DUP1 PUSH2 0x100 EXP DUP2 SLOAD DUP2 PUSH20 0xFFFFFFFFFFFFFFFFFFFFFFFFFFFFFFFFFFFFFFFF MUL NOT AND SWAP1 DUP4 PUSH20 0xFFFFFFFFFFFFFFFFFFFFFFFFFFFFFFFFFFFFFFFF AND MUL OR SWAP1 SSTORE POP DUP3 PUSH1 0x1 PUSH1 0x0 PUSH2 0x100 EXP DUP2 SLOAD DUP2 PUSH20 0xFFFFFFFFFFFFFFFFFFFFFFFFFFFFFFFFFFFFFFFF MUL NOT AND SWAP1 DUP4 PUSH20 0xFFFFFFFFFFFFFFFFFFFFFFFFFFFFFFFFFFFFFFFF AND MUL OR SWAP1 SSTORE POP DUP2 PUSH1 0x2 DUP2 SWAP1 SSTORE POP DUP1 PUSH1 0x3 DUP2 SWAP1 SSTORE POP POP POP POP PUSH3 0x1D0 JUMP JUMPDEST PUSH1 0x0 DUP1 REVERT JUMPDEST PUSH1 0x0 PUSH20 0xFFFFFFFFFFFFFFFFFFFFFFFFFFFFFFFFFFFFFFFF DUP3 AND SWAP1 POP SWAP2 SWAP1 POP JUMP JUMPDEST PUSH1 0x0 PUSH3 0x101 DUP3 PUSH3 0xD4 JUMP JUMPDEST SWAP1 POP SWAP2 SWAP1 POP JUMP JUMPDEST PUSH3 0x113 DUP2 PUSH3 0xF4 JUMP JUMPDEST DUP2 EQ PUSH3 0x11F JUMPI PUSH1 0x0 DUP1 REVERT JUMPDEST POP JUMP JUMPDEST PUSH1 0x0 DUP2 MLOAD SWAP1 POP PUSH3 0x133 DUP2 PUSH3 0x108 JUMP JUMPDEST SWAP3 SWAP2 POP POP JUMP JUMPDEST PUSH1 0x0 DUP2 SWAP1 POP SWAP2 SWAP1 POP JUMP JUMPDEST PUSH3 0x14E DUP2 PUSH3 0x139 JUMP JUMPDEST DUP2 EQ PUSH3 0x15A JUMPI PUSH1 0x0 DUP1 REVERT JUMPDEST POP JUMP JUMPDEST PUSH1 0x0 DUP2 MLOAD SWAP1 POP PUSH3 0x16E DUP2 PUSH3 0x143 JUMP JUMPDEST SWAP3 SWAP2 POP POP JUMP JUMPDEST PUSH1 0x0 DUP1 PUSH1 0x0 PUSH1 0x60 DUP5 DUP7 SUB SLT ISZERO PUSH3 0x190 JUMPI PUSH3 0x18F PUSH3 0xCF JUMP JUMPDEST JUMPDEST PUSH1 0x0 PUSH3 0x1A0 DUP7 DUP3 DUP8 ADD PUSH3 0x122 JUMP JUMPDEST SWAP4 POP POP PUSH1 0x20 PUSH3 0x1B3 DUP7 DUP3 DUP8 ADD PUSH3 0x15D JUMP JUMPDEST SWAP3 POP POP PUSH1 0x40 PUSH3 0x1C6 DUP7 DUP3 DUP8 ADD PUSH3 0x15D JUMP JUMPDEST SWAP2 POP POP SWAP3 POP SWAP3 POP SWAP3 JUMP JUMPDEST PUSH2 0xB53 DUP1 PUSH3 0x1E0 PUSH1 0x0 CODECOPY PUSH1 0x0 RETURN INVALID PUSH1 0x80 PUSH1 0x40 MSTORE PUSH1 0x4 CALLDATASIZE LT PUSH2 0x91 JUMPI PUSH1 0x0 CALLDATALOAD PUSH1 0xE0 SHR DUP1 PUSH4 0xA709C4FE GT PUSH2 0x59 JUMPI DUP1 PUSH4 0xA709C4FE EQ PUSH2 0x145 JUMPI DUP1 PUSH4 0xB14D21A4 EQ PUSH2 0x14F JUMPI DUP1 PUSH4 0xDC1997EA EQ PUSH2 0x166 JUMPI DUP1 PUSH4 0xE693D624 EQ PUSH2 0x191 JUMPI DUP1 PUSH4 0xF8EF1E13 EQ PUSH2 0x1BC JUMPI PUSH2 0x91 JUMP JUMPDEST DUP1 PUSH4 0x4397DA2 EQ PUSH2 0x96 JUMPI DUP1 PUSH4 0x1168C9A8 EQ PUSH2 0xC1 JUMPI DUP1 PUSH4 0x24600FC3 EQ PUSH2 0xD8 JUMPI DUP1 PUSH4 0x4D783BC6 EQ PUSH2 0xEF JUMPI DUP1 PUSH4 0x78E97925 EQ PUSH2 0x11A JUMPI JUMPDEST PUSH1 0x0 DUP1 REVERT JUMPDEST CALLVALUE DUP1 ISZERO PUSH2 0xA2 JUMPI PUSH1 0x0 DUP1 REVERT JUMPDEST POP PUSH2 0xAB PUSH2 0x1E7 JUMP JUMPDEST PUSH1 0x40 MLOAD PUSH2 0xB8 SWAP2 SWAP1 PUSH2 0x7BC JUMP JUMPDEST PUSH1 0x40 MLOAD DUP1 SWAP2 SUB SWAP1 RETURN JUMPDEST CALLVALUE DUP1 ISZERO PUSH2 0xCD JUMPI PUSH1 0x0 DUP1 REVERT JUMPDEST POP PUSH2 0xD6 PUSH2 0x20D JUMP JUMPDEST STOP JUMPDEST CALLVALUE DUP1 ISZERO PUSH2 0xE4 JUMPI PUSH1 0x0 DUP1 REVERT JUMPDEST POP PUSH2 0xED PUSH2 0x36D JUMP JUMPDEST STOP JUMPDEST CALLVALUE DUP1 ISZERO PUSH2 0xFB JUMPI PUSH1 0x0 DUP1 REVERT JUMPDEST POP PUSH2 0x104 PUSH2 0x464 JUMP JUMPDEST PUSH1 0x40 MLOAD PUSH2 0x111 SWAP2 SWAP1 PUSH2 0x7F2 JUMP JUMPDEST PUSH1 0x40 MLOAD DUP1 SWAP2 SUB SWAP1 RETURN JUMPDEST CALLVALUE DUP1 ISZERO PUSH2 0x126 JUMPI PUSH1 0x0 DUP1 REVERT JUMPDEST POP PUSH2 0x12F PUSH2 0x477 JUMP JUMPDEST PUSH1 0x40 MLOAD PUSH2 0x13C SWAP2 SWAP1 PUSH2 0x826 JUMP JUMPDEST PUSH1 0x40 MLOAD DUP1 SWAP2 SUB SWAP1 RETURN JUMPDEST PUSH2 0x14D PUSH2 0x47D JUMP JUMPDEST STOP JUMPDEST CALLVALUE DUP1 ISZERO PUSH2 0x15B JUMPI PUSH1 0x0 DUP1 REVERT JUMPDEST POP PUSH2 0x164 PUSH2 0x5F0 JUMP JUMPDEST STOP JUMPDEST CALLVALUE DUP1 ISZERO PUSH2 0x172 JUMPI PUSH1 0x0 DUP1 REVERT JUMPDEST POP PUSH2 0x17B PUSH2 0x74B JUMP JUMPDEST PUSH1 0x40 MLOAD PUSH2 0x188 SWAP2 SWAP1 PUSH2 0x7BC JUMP JUMPDEST PUSH1 0x40 MLOAD DUP1 SWAP2 SUB SWAP1 RETURN JUMPDEST CALLVALUE DUP1 ISZERO PUSH2 0x19D JUMPI PUSH1 0x0 DUP1 REVERT JUMPDEST POP PUSH2 0x1A6 PUSH2 0x76F JUMP JUMPDEST PUSH1 0x40 MLOAD PUSH2 0x1B3 SWAP2 SWAP1 PUSH2 0x826 JUMP JUMPDEST PUSH1 0x40 MLOAD DUP1 SWAP2 SUB SWAP1 RETURN JUMPDEST CALLVALUE DUP1 ISZERO PUSH2 0x1C8 JUMPI PUSH1 0x0 DUP1 REVERT JUMPDEST POP PUSH2 0x1D1 PUSH2 0x775 JUMP JUMPDEST PUSH1 0x40 MLOAD PUSH2 0x1DE SWAP2 SWAP1 PUSH2 0x826 JUMP JUMPDEST PUSH1 0x40 MLOAD DUP1 SWAP2 SUB SWAP1 RETURN JUMPDEST PUSH1 0x1 PUSH1 0x0 SWAP1 SLOAD SWAP1 PUSH2 0x100 EXP SWAP1 DIV PUSH20 0xFFFFFFFFFFFFFFFFFFFFFFFFFFFFFFFFFFFFFFFF AND DUP2 JUMP JUMPDEST PUSH1 0x0 DUP1 SLOAD SWAP1 PUSH2 0x100 EXP SWAP1 DIV PUSH20 0xFFFFFFFFFFFFFFFFFFFFFFFFFFFFFFFFFFFFFFFF AND PUSH20 0xFFFFFFFFFFFFFFFFFFFFFFFFFFFFFFFFFFFFFFFF AND CALLER PUSH20 0xFFFFFFFFFFFFFFFFFFFFFFFFFFFFFFFFFFFFFFFF AND EQ PUSH2 0x29B JUMPI PUSH1 0x40 MLOAD PUSH32 0x8C379A000000000000000000000000000000000000000000000000000000000 DUP2 MSTORE PUSH1 0x4 ADD PUSH2 0x292 SWAP1 PUSH2 0x8C4 JUMP JUMPDEST PUSH1 0x40 MLOAD DUP1 SWAP2 SUB SWAP1 REVERT JUMPDEST PUSH1 0x3 SLOAD PUSH1 0x4 SLOAD PUSH2 0x2AB SWAP2 SWAP1 PUSH2 0x913 JUMP JUMPDEST TIMESTAMP LT ISZERO PUSH2 0x2ED JUMPI PUSH1 0x40 MLOAD PUSH32 0x8C379A000000000000000000000000000000000000000000000000000000000 DUP2 MSTORE PUSH1 0x4 ADD PUSH2 0x2E4 SWAP1 PUSH2 0x993 JUMP JUMPDEST PUSH1 0x40 MLOAD DUP1 SWAP2 SUB SWAP1 REVERT JUMPDEST PUSH1 0x0 PUSH1 0x5 PUSH1 0x0 PUSH2 0x100 EXP DUP2 SLOAD DUP2 PUSH1 0xFF MUL NOT AND SWAP1 DUP4 ISZERO ISZERO MUL OR SWAP1 SSTORE POP PUSH1 0x0 DUP1 SLOAD SWAP1 PUSH2 0x100 EXP SWAP1 DIV PUSH20 0xFFFFFFFFFFFFFFFFFFFFFFFFFFFFFFFFFFFFFFFF AND PUSH20 0xFFFFFFFFFFFFFFFFFFFFFFFFFFFFFFFFFFFFFFFF AND PUSH32 0x69C633B3B4D8B59BCA280364BD6A267E6D1BD1C22FFF8FC90DD43945F650F038 PUSH1 0x40 MLOAD PUSH1 0x40 MLOAD DUP1 SWAP2 SUB SWAP1 LOG2 JUMP JUMPDEST PUSH1 0x0 DUP1 SLOAD SWAP1 PUSH2 0x100 EXP SWAP1 DIV PUSH20 0xFFFFFFFFFFFFFFFFFFFFFFFFFFFFFFFFFFFFFFFF AND PUSH20 0xFFFFFFFFFFFFFFFFFFFFFFFFFFFFFFFFFFFFFFFF AND CALLER PUSH20 0xFFFFFFFFFFFFFFFFFFFFFFFFFFFFFFFFFFFFFFFF AND EQ PUSH2 0x3FB JUMPI PUSH1 0x40 MLOAD PUSH32 0x8C379A000000000000000000000000000000000000000000000000000000000 DUP2 MSTORE PUSH1 0x4 ADD PUSH2 0x3F2 SWAP1 PUSH2 0x8C4 JUMP JUMPDEST PUSH1 0x40 MLOAD DUP1 SWAP2 SUB SWAP1 REVERT JUMPDEST PUSH1 0x0 DUP1 SLOAD SWAP1 PUSH2 0x100 EXP SWAP1 DIV PUSH20 0xFFFFFFFFFFFFFFFFFFFFFFFFFFFFFFFFFFFFFFFF AND PUSH20 0xFFFFFFFFFFFFFFFFFFFFFFFFFFFFFFFFFFFFFFFF AND PUSH2 0x8FC SELFBALANCE SWAP1 DUP2 ISZERO MUL SWAP1 PUSH1 0x40 MLOAD PUSH1 0x0 PUSH1 0x40 MLOAD DUP1 DUP4 SUB DUP2 DUP6 DUP9 DUP9 CALL SWAP4 POP POP POP POP ISZERO DUP1 ISZERO PUSH2 0x461 JUMPI RETURNDATASIZE PUSH1 0x0 DUP1 RETURNDATACOPY RETURNDATASIZE PUSH1 0x0 REVERT JUMPDEST POP JUMP JUMPDEST PUSH1 0x5 PUSH1 0x0 SWAP1 SLOAD SWAP1 PUSH2 0x100 EXP SWAP1 DIV PUSH1 0xFF AND DUP2 JUMP JUMPDEST PUSH1 0x4 SLOAD DUP2 JUMP JUMPDEST PUSH1 0x1 PUSH1 0x0 SWAP1 SLOAD SWAP1 PUSH2 0x100 EXP SWAP1 DIV PUSH20 0xFFFFFFFFFFFFFFFFFFFFFFFFFFFFFFFFFFFFFFFF AND PUSH20 0xFFFFFFFFFFFFFFFFFFFFFFFFFFFFFFFFFFFFFFFF AND CALLER PUSH20 0xFFFFFFFFFFFFFFFFFFFFFFFFFFFFFFFFFFFFFFFF AND EQ PUSH2 0x50D JUMPI PUSH1 0x40 MLOAD PUSH32 0x8C379A000000000000000000000000000000000000000000000000000000000 DUP2 MSTORE PUSH1 0x4 ADD PUSH2 0x504 SWAP1 PUSH2 0xA25 JUMP JUMPDEST PUSH1 0x40 MLOAD DUP1 SWAP2 SUB SWAP1 REVERT JUMPDEST PUSH1 0x5 PUSH1 0x0 SWAP1 SLOAD SWAP1 PUSH2 0x100 EXP SWAP1 DIV PUSH1 0xFF AND PUSH2 0x55C JUMPI PUSH1 0x40 MLOAD PUSH32 0x8C379A000000000000000000000000000000000000000000000000000000000 DUP2 MSTORE PUSH1 0x4 ADD PUSH2 0x553 SWAP1 PUSH2 0xA91 JUMP JUMPDEST PUSH1 0x40 MLOAD DUP1 SWAP2 SUB SWAP1 REVERT JUMPDEST PUSH1 0x2 SLOAD CALLVALUE EQ PUSH2 0x5A0 JUMPI PUSH1 0x40 MLOAD PUSH32 0x8C379A000000000000000000000000000000000000000000000000000000000 DUP2 MSTORE PUSH1 0x4 ADD PUSH2 0x597 SWAP1 PUSH2 0xAFD JUMP JUMPDEST PUSH1 0x40 MLOAD DUP1 SWAP2 SUB SWAP1 REVERT JUMPDEST CALLER PUSH20 0xFFFFFFFFFFFFFFFFFFFFFFFFFFFFFFFFFFFFFFFF AND PUSH32 0x3B5033869479E8A98AF42B272F05933F60489FE9FB43D63E11A6C31F3FA7474 CALLVALUE PUSH1 0x40 MLOAD PUSH2 0x5E6 SWAP2 SWAP1 PUSH2 0x826 JUMP JUMPDEST PUSH1 0x40 MLOAD DUP1 SWAP2 SUB SWAP1 LOG2 JUMP JUMPDEST PUSH1 0x0 DUP1 SLOAD SWAP1 PUSH2 0x100 EXP SWAP1 DIV PUSH20 0xFFFFFFFFFFFFFFFFFFFFFFFFFFFFFFFFFFFFFFFF AND PUSH20 0xFFFFFFFFFFFFFFFFFFFFFFFFFFFFFFFFFFFFFFFF AND CALLER PUSH20 0xFFFFFFFFFFFFFFFFFFFFFFFFFFFFFFFFFFFFFFFF AND EQ PUSH2 0x67E JUMPI PUSH1 0x40 MLOAD PUSH32 0x8C379A000000000000000000000000000000000000000000000000000000000 DUP2 MSTORE PUSH1 0x4 ADD PUSH2 0x675 SWAP1 PUSH2 0x8C4 JUMP JUMPDEST PUSH1 0x40 MLOAD DUP1 SWAP2 SUB SWAP1 REVERT JUMPDEST PUSH1 0x1 PUSH1 0x5 PUSH1 0x0 PUSH2 0x100 EXP DUP2 SLOAD DUP2 PUSH1 0xFF MUL NOT AND SWAP1 DUP4 ISZERO ISZERO MUL OR SWAP1 SSTORE POP TIMESTAMP PUSH1 0x4 DUP2 SWAP1 SSTORE POP PUSH1 0x1 PUSH1 0x0 SWAP1 SLOAD SWAP1 PUSH2 0x100 EXP SWAP1 DIV PUSH20 0xFFFFFFFFFFFFFFFFFFFFFFFFFFFFFFFFFFFFFFFF AND PUSH20 0xFFFFFFFFFFFFFFFFFFFFFFFFFFFFFFFFFFFFFFFF AND PUSH1 0x0 DUP1 SLOAD SWAP1 PUSH2 0x100 EXP SWAP1 DIV PUSH20 0xFFFFFFFFFFFFFFFFFFFFFFFFFFFFFFFFFFFFFFFF AND PUSH20 0xFFFFFFFFFFFFFFFFFFFFFFFFFFFFFFFFFFFFFFFF AND PUSH32 0xDF93D9E98EA70B3B681B0019D6C90989F21BC26ACC139236A7B8C44F8BC28AFA PUSH1 0x4 SLOAD PUSH1 0x40 MLOAD PUSH2 0x741 SWAP2 SWAP1 PUSH2 0x826 JUMP JUMPDEST PUSH1 0x40 MLOAD DUP1 SWAP2 SUB SWAP1 LOG3 JUMP JUMPDEST PUSH1 0x0 DUP1 SLOAD SWAP1 PUSH2 0x100 EXP SWAP1 DIV PUSH20 0xFFFFFFFFFFFFFFFFFFFFFFFFFFFFFFFFFFFFFFFF AND DUP2 JUMP JUMPDEST PUSH1 0x3 SLOAD DUP2 JUMP JUMPDEST PUSH1 0x2 SLOAD DUP2 JUMP JUMPDEST PUSH1 0x0 PUSH20 0xFFFFFFFFFFFFFFFFFFFFFFFFFFFFFFFFFFFFFFFF DUP3 AND SWAP1 POP SWAP2 SWAP1 POP JUMP JUMPDEST PUSH1 0x0 PUSH2 0x7A6 DUP3 PUSH2 0x77B JUMP JUMPDEST SWAP1 POP SWAP2 SWAP1 POP JUMP JUMPDEST PUSH2 0x7B6 DUP2 PUSH2 0x79B JUMP JUMPDEST DUP3 MSTORE POP POP JUMP JUMPDEST PUSH1 0x0 PUSH1 0x20 DUP3 ADD SWAP1 POP PUSH2 0x7D1 PUSH1 0x0 DUP4 ADD DUP5 PUSH2 0x7AD JUMP JUMPDEST SWAP3 SWAP2 POP POP JUMP JUMPDEST PUSH1 0x0 DUP2 ISZERO ISZERO SWAP1 POP SWAP2 SWAP1 POP JUMP JUMPDEST PUSH2 0x7EC DUP2 PUSH2 0x7D7 JUMP JUMPDEST DUP3 MSTORE POP POP JUMP JUMPDEST PUSH1 0x0 PUSH1 0x20 DUP3 ADD SWAP1 POP PUSH2 0x807 PUSH1 0x0 DUP4 ADD DUP5 PUSH2 0x7E3 JUMP JUMPDEST SWAP3 SWAP2 POP POP JUMP JUMPDEST PUSH1 0x0 DUP2 SWAP1 POP SWAP2 SWAP1 POP JUMP JUMPDEST PUSH2 0x820 DUP2 PUSH2 0x80D JUMP JUMPDEST DUP3 MSTORE POP POP JUMP JUMPDEST PUSH1 0x0 PUSH1 0x20 DUP3 ADD SWAP1 POP PUSH2 0x83B PUSH1 0x0 DUP4 ADD DUP5 PUSH2 0x817 JUMP JUMPDEST SWAP3 SWAP2 POP POP JUMP JUMPDEST PUSH1 0x0 DUP3 DUP3 MSTORE PUSH1 0x20 DUP3 ADD SWAP1 POP SWAP3 SWAP2 POP POP JUMP JUMPDEST PUSH32 0x4F6E6C7920746865206C616E646C6F72642063616E20706572666F726D206163 PUSH1 0x0 DUP3 ADD MSTORE PUSH32 0x74696F6E00000000000000000000000000000000000000000000000000000000 PUSH1 0x20 DUP3 ADD MSTORE POP JUMP JUMPDEST PUSH1 0x0 PUSH2 0x8AE PUSH1 0x24 DUP4 PUSH2 0x841 JUMP JUMPDEST SWAP2 POP PUSH2 0x8B9 DUP3 PUSH2 0x852 JUMP JUMPDEST PUSH1 0x40 DUP3 ADD SWAP1 POP SWAP2 SWAP1 POP JUMP JUMPDEST PUSH1 0x0 PUSH1 0x20 DUP3 ADD SWAP1 POP DUP2 DUP2 SUB PUSH1 0x0 DUP4 ADD MSTORE PUSH2 0x8DD DUP2 PUSH2 0x8A1 JUMP JUMPDEST SWAP1 POP SWAP2 SWAP1 POP JUMP JUMPDEST PUSH32 0x4E487B7100000000000000000000000000000000000000000000000000000000 PUSH1 0x0 MSTORE PUSH1 0x11 PUSH1 0x4 MSTORE PUSH1 0x24 PUSH1 0x0 REVERT JUMPDEST PUSH1 0x0 PUSH2 0x91E DUP3 PUSH2 0x80D JUMP JUMPDEST SWAP2 POP PUSH2 0x929 DUP4 PUSH2 0x80D JUMP JUMPDEST SWAP3 POP DUP3 DUP3 ADD SWAP1 POP DUP1 DUP3 GT ISZERO PUSH2 0x941 JUMPI PUSH2 0x940 PUSH2 0x8E4 JUMP JUMPDEST JUMPDEST SWAP3 SWAP2 POP POP JUMP JUMPDEST PUSH32 0x546865206C65617365207465726D20686173206E6F7420656E64656400000000 PUSH1 0x0 DUP3 ADD MSTORE POP JUMP JUMPDEST PUSH1 0x0 PUSH2 0x97D PUSH1 0x1C DUP4 PUSH2 0x841 JUMP JUMPDEST SWAP2 POP PUSH2 0x988 DUP3 PUSH2 0x947 JUMP JUMPDEST PUSH1 0x20 DUP3 ADD SWAP1 POP SWAP2 SWAP1 POP JUMP JUMPDEST PUSH1 0x0 PUSH1 0x20 DUP3 ADD SWAP1 POP DUP2 DUP2 SUB PUSH1 0x0 DUP4 ADD MSTORE PUSH2 0x9AC DUP2 PUSH2 0x970 JUMP JUMPDEST SWAP1 POP SWAP2 SWAP1 POP JUMP JUMPDEST PUSH32 0x4F6E6C792074656E656E742063616E20706572666F726D207468652061637469 PUSH1 0x0 DUP3 ADD MSTORE PUSH32 0x6F6E000000000000000000000000000000000000000000000000000000000000 PUSH1 0x20 DUP3 ADD MSTORE POP JUMP JUMPDEST PUSH1 0x0 PUSH2 0xA0F PUSH1 0x22 DUP4 PUSH2 0x841 JUMP JUMPDEST SWAP2 POP PUSH2 0xA1A DUP3 PUSH2 0x9B3 JUMP JUMPDEST PUSH1 0x40 DUP3 ADD SWAP1 POP SWAP2 SWAP1 POP JUMP JUMPDEST PUSH1 0x0 PUSH1 0x20 DUP3 ADD SWAP1 POP DUP2 DUP2 SUB PUSH1 0x0 DUP4 ADD MSTORE PUSH2 0xA3E DUP2 PUSH2 0xA02 JUMP JUMPDEST SWAP1 POP SWAP2 SWAP1 POP JUMP JUMPDEST PUSH32 0x546865206C65617365206973206E6F7420616374697665000000000000000000 PUSH1 0x0 DUP3 ADD MSTORE POP JUMP JUMPDEST PUSH1 0x0 PUSH2 0xA7B PUSH1 0x17 DUP4 PUSH2 0x841 JUMP JUMPDEST SWAP2 POP PUSH2 0xA86 DUP3 PUSH2 0xA45 JUMP JUMPDEST PUSH1 0x20 DUP3 ADD SWAP1 POP SWAP2 SWAP1 POP JUMP JUMPDEST PUSH1 0x0 PUSH1 0x20 DUP3 ADD SWAP1 POP DUP2 DUP2 SUB PUSH1 0x0 DUP4 ADD MSTORE PUSH2 0xAAA DUP2 PUSH2 0xA6E JUMP JUMPDEST SWAP1 POP SWAP2 SWAP1 POP JUMP JUMPDEST PUSH32 0x496E636F72726563742072656E7420616D6F756E742073656E742E0000000000 PUSH1 0x0 DUP3 ADD MSTORE POP JUMP JUMPDEST PUSH1 0x0 PUSH2 0xAE7 PUSH1 0x1B DUP4 PUSH2 0x841 JUMP JUMPDEST SWAP2 POP PUSH2 0xAF2 DUP3 PUSH2 0xAB1 JUMP JUMPDEST PUSH1 0x20 DUP3 ADD SWAP1 POP SWAP2 SWAP1 POP JUMP JUMPDEST PUSH1 0x0 PUSH1 0x20 DUP3 ADD SWAP1 POP DUP2 DUP2 SUB PUSH1 0x0 DUP4 ADD MSTORE PUSH2 0xB16 DUP2 PUSH2 0xADA JUMP JUMPDEST SWAP1 POP SWAP2 SWAP1 POP JUMP INVALID LOG2 PUSH5 0x6970667358 0x22 SLT KECCAK256 SWAP9 0xEC 0xB9 SWAP3 0xE9 SUB 0xE7 0xB0 KECCAK256 SWAP1 SWAP6 0xCB 0x49 DUP16 0x2A LOG3 0xB7 0xA8 0xD4 DELEGATECALL 0x24 0x2C LOG3 0xB7 0xE8 SMOD NUMBER 0xE LT PUSH15 0x174064736F6C634300081000330000 "
				},
				"gasEstimates": {
					"creation": {
						"codeDepositCost": "579800",
						"executionCost": "infinite",
						"totalCost": "infinite"
					},
					"external": {
						"activatTheLease()": "57041",
						"isLeaseActive()": "2538",
						"landlord()": "2555",
						"leaseTerm()": "2495",
						"payRent()": "8138",
						"rentAmount()": "2517",
						"startTime()": "2518",
						"tenent()": "2515",
						"terminateLease()": "infinite",
						"withdrawFunds()": "infinite"
					}
				},
				"methodIdentifiers": {
					"activatTheLease()": "b14d21a4",
					"isLeaseActive()": "4d783bc6",
					"landlord()": "dc1997ea",
					"leaseTerm()": "e693d624",
					"payRent()": "a709c4fe",
					"rentAmount()": "f8ef1e13",
					"startTime()": "78e97925",
					"tenent()": "04397da2",
					"terminateLease()": "1168c9a8",
					"withdrawFunds()": "24600fc3"
				}
			},
			"storageLayout": {
				"storage": [
					{
						"astId": 3,
						"contract": "contracts/RentalContract.sol:RentalContract",
						"label": "landlord",
						"offset": 0,
						"slot": "0",
						"type": "t_address"
					},
					{
						"astId": 5,
						"contract": "contracts/RentalContract.sol:RentalContract",
						"label": "tenent",
						"offset": 0,
						"slot": "1",
						"type": "t_address"
					},
					{
						"astId": 7,
						"contract": "contracts/RentalContract.sol:RentalContract",
						"label": "rentAmount",
						"offset": 0,
						"slot": "2",
						"type": "t_uint256"
					},
					{
						"astId": 9,
						"contract": "contracts/RentalContract.sol:RentalContract",
						"label": "leaseTerm",
						"offset": 0,
						"slot": "3",
						"type": "t_uint256"
					},
					{
						"astId": 11,
						"contract": "contracts/RentalContract.sol:RentalContract",
						"label": "startTime",
						"offset": 0,
						"slot": "4",
						"type": "t_uint256"
					},
					{
						"astId": 13,
						"contract": "contracts/RentalContract.sol:RentalContract",
						"label": "isLeaseActive",
						"offset": 0,
						"slot": "5",
						"type": "t_bool"
					}
				],
				"types": {
					"t_address": {
						"encoding": "inplace",
						"label": "address",
						"numberOfBytes": "20"
					},
					"t_bool": {
						"encoding": "inplace",
						"label": "bool",
						"numberOfBytes": "1"
					},
					"t_uint256": {
						"encoding": "inplace",
						"label": "uint256",
						"numberOfBytes": "32"
					}
				}
			},
			"userdoc": {
				"kind": "user",
				"methods": {},
				"version": 1
			}
		}
	}
}